:020000040800F2
:1000000010040020E91B0008351C0008391C0008FA
:100010003D1C0008411C0008451C000800000000B1
:10002000000000000000000000000000491C000863
:100030004D1C000800000000511C0008091C0008AD
:10004000551C0008591C00085D1C0008611C0008B4
:10005000651C0008691C00086D1C0008711C000864
:10006000751C0008791C00087D1C0008811C000814
:10007000851C0008891C00088D1C0008911C0008C4
:10008000951C0008991C00089D1C0008A11C000874
:10009000A51C0008A91C0008AD1C0008B11C000824
:1000A000B51C0008B91C0008BD1C0008C11C0008D4
:1000B000C51C0008C91C0008CD1C0008D11C000884
:1000C000D51C0008D91C0008DD1C0008E11C000834
:1000D000E51C0008E91C0008ED1C0008F11C0008E4
:1000E000F51C0008F91C0008FD1C0008011D000893
:1000F000051D0008091D00080D1D0008111D000840
:10010000151D0008191D00081D1D0008211D0008EF
:10011000251D0008291D00080D1C00082D1D0008C4
:10012000311D0008351D0008391D00083D1D00085F
:10013000411D0008451D0008491D00084D1D00080F
:10014000511D0008551D0008591D00085D1D0008BF
:10015000611D0008651D0008691D00086D1D00086F
:10016000711D0008751D0008791D00087D1D00081F
:10017000811D0008851D0008891D00080000000081
:100180008D1D0008911D000838B5040001D1012023
:1001900032BD94F82000002802D1204600F05AFA1F
:1001A0002068016821F00201016000F0ABFA054609
:1001B0002068416889070DD500F0A4FA401B0B2880
:1001C000F6D3606A40F400306062052084F82000B5
:1001D000012032BD016841F00101016000F092FA96
:1001E000054620684168C9070DD400F08BFA401B12
:1001F0000B28F6D3606A40F400306062052084F872
:100200002000012032BD217E0129016803D141F087
:100210008001016002E021F0800101602068617EC0
:100220000129016803D141F04001016002E021F0A1
:10023000400101602068A17E0129016803D141F0DD
:100240002001016002E021F0200101602068E17ED0
:100250000129016803D121F01001016002E041F0A1
:10026000100101602068217F0129016803D141F05C
:100270000801016002E021F0080101602068617F4F
:100280000129016803D141F00401016002E021F07D
:1002900004010160A068E1680843216908436169BD
:1002A00008436168491E08432168C86100206062F4
:1002B000012084F82000002032BDF0B490F8202006
:1002C000012A01D0022A67D14D48026842F001029A
:1002D0000260026822F47C52026002684B6A42EAC1
:1002E0000322026001220B7D03F01F039A40D343D7
:1002F000C4691C40C461CC69002C15D1C4681C4081
:10030000C460404C4D6904EBC505CE684F68C7EA30
:100310000646C5F840624D6904EBC5048D680E6859
:10032000C6EA0545C4F84452CC69012C15D1C4680D
:100330001443C460334C4D6904EBC5050E684F6827
:10034000C7EA0646C5F840624D6904EBC5048D68EE
:10035000CE68C6EA0545C4F844528C69002C44684E
:1003600002D11C40446001E0144344600C69002C3D
:1003700003D144692340436102E04369134343616D
:10038000096A012902D1C1691143C16101684908A3
:1003900049000160002004E0416A41F4802141628B
:1003A0000120F0BC704738B5044694F820000128BD
:1003B0001FD1022084F82000206801684908490004
:1003C000016000F09FF9054620684068C0070DD520
:1003D00000F098F9401B0B28F6D3606A40F4003017
:1003E0006062052084F82000012032BD0020606298
:1003F00032BD606A40F400206062012032BD00001E
:100400000066004000640040F0B490F820400568A9
:10041000AD68012C01D0022C5ED115F0E05F55D003
:10042000C5F30164032C05D3416A41F40001416224
:10043000012056E00125A5401D60230104681C44ED
:10044000CD688E68002E05D10E6845EA4655C4F881
:10045000805105E04F6846EAC7063543C4F880512D
:100460000C6905681D44C5F88441097D012907D13F
:1004700001681944D1F8844144F48074C1F884417E
:10048000D1799479240444EA0161547941EA042140
:100490001479214304681C44C4F88C11D1789478F1
:1004A000240444EA0161547841EA0421127811439A
:1004B00002681A44C2F8881100681844D0F8801104
:1004C00041F00101C0F8801100200AE0416A41F4C6
:1004D00000114162012004E0416A41F4802141623F
:1004E0000120F0BC704770B490F82040012C02D07D
:1004F000022C40F08C800568002909D1EC6814F0CA
:10050000030F0FD1416A41F400114162012083E0E1
:100510002C6914F0030F05D1416A41F400114162C6
:10052000012079E005EB0115D5F8B05115F004056F
:100530009560066806EB0116D6F8B05102D16D0D34
:10054000156001E0ED085560056805EB0115D5F86B
:10055000B051C5F34005D560056805EB0115D5F828
:10056000B45105F00F051561056805EB0115D5F8C7
:10057000B451C5F307259561056805EB0115D5F85C
:10058000B4512D0C5561026802EB0112D2F8B8216A
:100590001A70026802EB0112D2F8B821120A5A70DE
:1005A000026802EB0112D2F8B821120C9A700268AC
:1005B00002EB0112D2F8B821120EDA70026802EBD7
:1005C0000112D2F8BC211A71026802EB0112D2F8B2
:1005D000BC21120A5A71026802EB0112D2F8BC2146
:1005E000120C9A71026802EB0112D2F8BC21120EB1
:1005F000DA710068002904D1C16841F02001C160AE
:1006000003E0016941F020010161002004E0416A3A
:1006100041F480214162012070BC704782B000200B
:1006200000903348416841F480414160416801F4E1
:1006300080410091009900210091016841F08051B2
:100640000160006800F0805000900098072002B020
:1006500000F0B7B810B586B0044601A8142100F028
:10066000CFF820682349884224D1002000902248F6
:10067000016941F000710161016901F000710091AF
:10068000009900210091016841F0080101600068B3
:1006900000F00800009000980320019002200290D2
:1006A00000200390032004900920059001A913481D
:1006B00000F0AAF806B010BD80B500681049884265
:1006C00015D1002000900A48016841F01001016036
:1006D000006800F0100000900098002211463620BB
:1006E00000F070F83620BDE8024000F07AB801BD95
:1006F000403802400064004030380240000C0240A4
:100700000010004001484068704700BF0000002012
:1007100035490A684FF6FF031A40000200F4E06012
:100720001043324A1043086070472F480068C0F3F6
:1007300002207047002807D4012100F01F029140D9
:100740002B4A400942F8201070470901020002D4E8
:10075000284881547047284802F00F02104400F8DE
:10076000041C704710B400F00700C0F10703052B0C
:1007700000D30423041D072C01D2002000E0C01E7A
:10078000012404FA03F35B1E1940814004FA00F0CF
:10079000401E1040084310BC704710B5401EB0F119
:1007A000807F01D3012010BD144C60600F214FF0F9
:1007B000FF30FFF7CAFF0020A06007202060002064
:1007C00010BDA5E770B504460D461646FFF7ADFF10
:1007D00032462946FFF7C6FF01462046BDE8704075
:1007E000B3E7A7E7D9E700000CED00E00000FA0549
:1007F00000E100E000E400E018ED00E010E000E0BF
:10080000002200F0EFB80000F8B4002225E04FF01D
:10081000080C0CFA06F63E4345F82460664C266840
:10082000DD432E404F68FF0300D51E4326606668F7
:100830002E404F68BF0300D51E436660A6682E4059
:100840004F68FF0200D51E43A660E66835404E683B
:10085000B60200D51D43E560521C102A80F0A3802B
:10086000012303FA02F40B682340A342F4D14D683C
:10087000022D01D0122D12D1D50800EB8506356A64
:10088000970007F01C074FF00F0C0CFA07FC25EA45
:100890000C05D1F810C00CFA07F73D433562056826
:1008A00056000327B740FF433D4091F804C00CF0C9
:1008B000030C0CFA06FC4CEA050505604D68012D99
:1008C00005D0022D03D0112D01D0122D11D1856834
:1008D0003D40D1F80CC00CFA06FC4CEA05058560D9
:1008E000456825EA04044D68C5F3001595402C437E
:1008F0004460C56807EA05048D68B5402C43C460B0
:100900004C68E400A8D5002400942C4C256845F4DC
:1009100080452560246804F480440094009C940879
:10092000274D55F824C0970007F00C060F27B74055
:100930002CEA0707DFF88CC0604502D14FF0000CAD
:1009400067E7DFF884C0604502D14FF0010C60E733
:10095000DFF878C0604502D14FF0020C59E7DFF8AC
:1009600070C0604502D14FF0030C52E7DFF864C05D
:10097000604502D14FF0040C4BE7DFF85CC06045E6
:1009800002D14FF0050C44E7DFF850C0604502D1BA
:100990004FF0060C3DE7DFF848C060457FF437AF05
:1009A0004FF0070C35E7F1BC7047002A01D0816198
:1009B0007047090481617047003C0140443802409F
:1009C00008380140000002400004024000080240D4
:1009D000000C0240001002400014024000180240C7
:1009E000001C024000B500BF130096469446103923
:1009F00028BFA0E80C50FAD85FEA417C28BF0CC0A1
:100A000048BF40F8042BC90728BF20F8022B48BF75
:100A100000F8012B00BD000080B500F01DFA00F0C9
:100A200025FA00F02BFA00F037FA00F043FA00F054
:100A30004FFA00F062FA00F07DFA00F084FA00F05C
:100A40008BFA00F092FA00F0EAFABDE8014000F0FB
:100A50004CBB80B500F081FBBDE8014000F0F9B966
:100A6000704780B5FFF7D8FF00F0A8FB00F009F849
:100A700000F099F800F071F800F057F8FFF7E9FF7F
:100A8000FEE700B593B006A80FF2803191EC0C0B95
:100A900080EC0C0B01A81421FFF7B2FE002000909F
:100AA000CB48016841F080510160006800F080503F
:100AB0000090009800200090C648016841F48041F1
:100AC0000160006800F480400090009801200690CA
:100AD0004FF48030079002200C904FF480000D906E
:100AE00004200E90A8200F90022010900720119053
:100AF00006A800F07DFB002801D000F085F90F204A
:100B0000019002200290002003904FF4A050049026
:100B10004FF480500590052101A800F0E3FC002867
:100B200001D000F071F913B000BD80B5AA48AB49FF
:100B30000160A821416000218160C1604FF4003153
:100B400001610021416181618183FFF71DFB002864
:100B500002D0BDE8014057E101BD1CB50FF2DC2019
:100B6000D0E90023CDE900239D4C9E482060002061
:100B70006060A0604AF20F40E0600020A061204663
:100B800000F072FD002801D000F03EF91020009026
:100B9000002001906946204600F0A2FE002801D006
:100BA00000F032F913BD2DE9F04387B001A81421FC
:100BB000FFF726FE002000908B48016841F01001ED
:100BC0000160016801F0100100910099002100917D
:100BD000016841F004010160016801F00401009125
:100BE000009900210091016841F0800101600168D5
:100BF00001F080010091009900210091016841F00D
:100C000001010160016801F00101009100990021DA
:100C10000091016841F002010160016801F00201E8
:100C20000091009900210091016841F008010160E4
:100C3000006800F00800009000986C4C0022082129
:100C40002046FFF7B2FE6A4D012211462846FFF703
:100C5000ACFE4FF21006674F002231463846FFF7D0
:100C6000A4FE08200190012002900020039004902F
:100C700001A92046FFF7C8FD012001900290002045
:100C80000390049001A92846FFF7BEFD08200190BB
:100C9000022002900020039004900520059001A9F5
:100CA0002846FFF7B1FD0120019053480290002033
:100CB0000390DFF8488101A94046FFF7A5FD102009
:100CC00001900220029000200390049006200590DD
:100CD00001A94046FFF798FDE02001900220029014
:100CE0000020039004900520059001A94046FFF7DD
:100CF0008BFD04200190002002900390DFF800910A
:100D000001A94846FFF780FD4FF480600190022062
:100D100002900020039004900520059001A9484608
:100D2000FFF772FD019601200290002003900490CD
:100D300001A93846FFF768FD4FF4A4500190022046
:100D400002900020039004900620059001A92846F7
:100D5000FFF75AFD4FF400700190002002900390BD
:100D600001A94046FFF750FD4FF4E05001900220EA
:100D700002900020039004900A20059001A94046AB
:100D8000FFF742FD2020019000200290039001A96E
:100D90003846FFF739FD4FF4107001901220029091
:100DA00001200390002004900420059001A94846EA
:100DB000FFF72AFD022001901248029000200390C4
:100DC00001A92046FFF720FD07B0BDE8F083000031
:100DD000403802400070004094040020006400404D
:100DE000540400200010004030380240001002403F
:100DF00000080240000C02400000111000000240F8
:100E00000004024000001210FEE700000000000095
:100E100000000000000000000000000000000000D2
:100E200000000000000000000000000000000000C2
:100E300000000000000000000000000000000000B2
:100E4000000000000649884202D1064800680047B9
:100E50007047034800F021BC03480249086070470E
:100E6000540400200C050020610A000870470000AF
:100E700002464FF400410448FFF797BD00224FF4AB
:100E800000410148FFF791BD000C024002464FF4BB
:100E900000510448FFF789BD00224FF4005101487A
:100EA000FFF783BD000C024002464FF48051044816
:100EB000FFF77BBD00224FF480510148FFF775BD5D
:100EC000000C024002464FF480410448FFF76DBD1C
:100ED00000224FF480410148FFF767BD000C02403B
:100EE00010B5002404E00C4951F820008047641C30
:100EF000E4B220460528F6DB10BD0020074A064B69
:100F000002E043F82120401CC0B201460529F8DB6D
:100F10000348044908607047EC040020610A000897
:100F2000E10E00080C0500200120FFF7A1BF002002
:100F3000FFF79EBF0020FFF79BBF0120FFF7A6BF72
:100F40000020FFF7A3BF0020FFF7A0BF0120FFF79D
:100F5000ABBF0020FFF7A8BF0020FFF7A5BF01200F
:100F6000FFF7B0BF0020FFF7ADBF0020FFF7AABF1B
:100F700010B5314C2069401C2061B0F5167F0ED3AE
:100F8000002020610FF219002C494860012204F171
:100F90000801022000F0D1F8207A401C207210BD18
:100FA00010B5254C2069401C2061B0F5C87F12D3D4
:100FB000204600F0B7F8002020612078010002D11F
:100FC000FFF7B5FF03E0012801D1FFF7ADFF0FF2F6
:100FD00009001A49486010BD17480169491C0161A0
:100FE000B1F57A7F00D2704780B500210161FFF72B
:100FF0009BFF0FF209001149486001BD0E480169CD
:10100000491C0161B1F5FA6F00D2704780B500212B
:101010000161FFF78CFF0A480849486001BD80B5AF
:1010200005480121017200210161FFF780FF04489A
:101030000249486001BD0000D8040020EC040020F3
:10104000710F00083448017A002903D1012101728F
:10105000FFF773BF00210172FFF772BF0020F72175
:1010600000E00120002805D12B48807A0842F8D002
:101070000120704700207047002003E02648817A55
:10108000C17201200028F9D0704710B5224C607A57
:10109000401C6072C0B2C82807D100206072FFF700
:1010A0005EFF1E481E49886010BD207800281BD0B6
:1010B0000020207019481A498860FFF7C3FF607844
:1010C000002803D0BDE81040FFF749BFFFF7C6FF77
:1010D000012803D1BDE81040FFF738BFFFF7CCFF70
:1010E000BDE81040FFF735BF10BD10B50A4C012018
:1010F000E07000202081FFF723FFFFF72AFFFFF7B2
:1011000031FF002002E00020E07201200028FAD028
:1011100002480349886010BD000500208B100008BC
:10112000EC04002080B50346224A00212048FFF746
:10113000DAF9401E8041C00F02BD10B51E4C206080
:10114000226104F140030A4621461948FFF75CF981
:10115000401E8041C043C00F10BD10B5164800218D
:1011600041608160C160017502218161FF21C1611F
:10117000002202624162114681620D21C162114664
:101180000163012141638163094C00F1180120468C
:10119000FFF793F8002801D0012010BD2046FFF78B
:1011A00002F9401E8041C043C00F10BD0000000086
:1011B00094040020BC0400201004002080B50B48DB
:1011C000016841F400710160016841F480610160CF
:1011D000016841F4807101600320FFF7F2FA0020FA
:1011E00000F09EFBFFF71AFA002002BD003C02400F
:1011F0002DE9F04182B0040016D0B64D2078C0072A
:101200004BD5A86800F00C00042807D0A86800F0AF
:101210000C0008280AD16868400207D528688003B6
:101220003BD56068002838D1012050E16068B0F5F6
:10123000803F04D1286840F48030286012E0B0F587
:10124000A02F286807D140F480202860286840F447
:101250008030286006E020F480302860286820F480
:1012600080202860606800280BD0FFF74BFA064604
:101270002868800311D4FFF745FA801B6528F7D34F
:1012800022E1FFF73FFA06462868800305D5FFF7FD
:1012900039FA801B6528F7D316E12078800718D526
:1012A000A86810F00C0F07D0A86800F00C00082800
:1012B00024D16868400221D42868800702D5E068FC
:1012C0000128B1D1286820F0F800216940EAC10066
:1012D00028602078000747D57F486169002935D00C
:1012E00001210160FFF70EFA0646686F80073BD4C4
:1012F000FFF708FA801B0328F7D3E5E0774FE06893
:10130000002815D001203860FFF7FCF90646286850
:10131000800705D4FFF7F6F9801B0328F7D3D3E045
:10132000286820F0F800216940EAC1002860D0E771
:1013300000203860FFF7E6F9064628688007C8D520
:10134000FFF7E0F9801B0328F7D3BDE0002101601F
:10135000FFF7D8F90646686F800705D5FFF7D2F981
:10136000801B0328F7D3AFE02078400767D500271C
:10137000286CC0000BD438460090286C40F0805098
:101380002864286C00F08050009000980127DFF856
:101390005081D8F80000C00512D4D8F8000040F4FD
:1013A0008070C8F80000FFF7ADF90646D8F80000D5
:1013B000C00505D4FFF7A6F9801B0328F6D383E008
:1013C000A068012804D1286F40F00100286711E0CF
:1013D0000528286F07D140F004002867286F40F0E7
:1013E0000100286706E0400840002867286F20F0C9
:1013F00004002867A06800280DD0FFF783F906468F
:10140000286F800715D4FFF77DF9801B41F28931E1
:101410008842F5D358E0FFF775F90646286F800734
:1014200007D5FFF76FF9801B41F289318842F5D368
:101430004AE0012F03D1286C20F080502864A06975
:10144000002843D0A96801F00C0108293FF4ECAE54
:10145000224F02282BD100203866FFF753F90646A9
:101460002868800105D5FFF74DF9801B0328F7D3C5
:101470002AE0E069216A0843616A40EA8110A16AB2
:10148000891EC903090C50EA0140E16A40EA016083
:10149000686001203866FFF735F906462868800144
:1014A00014D4FFF72FF9801B0328F7D30CE000209A
:1014B0003866FFF727F906462868800106D5FFF74A
:1014C00021F9801B0328F7D3032000E00020BDE8AA
:1014D000F68100BF00380240800E474200004742BC
:1014E000007000402DE9F04104460D46002C5BD011
:1014F000404E306800F00F00A84205D235703068C9
:1015000000F00F00A8424FD120683B4F810712D551
:10151000400703D5B86840F4E050B8602078000771
:1015200003D5B86840F46040B860B86820F0F000B7
:10153000A1680843B8602078C0072AD560680128F0
:1015400003D1396889030BD42EE0022801D0032887
:1015500003D13968890103D426E03968890723D586
:10156000B968890850EA8100B860FFF7CBF8804677
:10157000B86800F00C006168B0EB810F09D0FFF78C
:10158000C1F8A0EB080041F289318842F0D3032072
:101590002DE0306800F00F00854207D235703068CA
:1015A00000F00F00A84201D0012020E02078400781
:1015B00005D5B86820F4E050E1680843B8602078A9
:1015C000000706D5B86820F46040216940EAC100F0
:1015D000B86000F017F80949BA68C2F30312895CD1
:1015E000C84007490860002000F09AF90020BDE8D3
:1015F000F0810000003C024000380240B81A0008A8
:101600000C00002010B5154C606800F00C00042898
:1016100002D0082802D01EE0114810BD206800F05A
:101620003F020023206840022068C0F3881005D5DF
:101630000B49A1FB000100F097F904E00949A1FB67
:10164000000100F091F92168C1F30141491C4900F2
:10165000B0FBF1F010BD034810BD00BF04380240DC
:1016600000127A000024F40038B5040001D10120F2
:1016700032BD04F13C056878002804D100202870B0
:101680002046FFF719F802206870211D206800F03D
:10169000BEF801206870002032BD0168CA6842F0BF
:1016A0000102CA600068816801F00701062903D0C1
:1016B000016841F0010101600020704710B5044647
:1016C00020680169890717D5C168890714D56FF0AB
:1016D00002010161012020772068806910F0030F6A
:1016E000204602D000F0B7F904E000F0B5F920463A
:1016F00000F0B3F90020207720680169490717D569
:10170000C168490714D56FF00401016102202077F8
:101710002068806910F4407F204602D000F09BF9D9
:1017200004E000F099F9204600F097F900202077B6
:1017300020680169090717D5C168090714D56FF03A
:1017400008010161042020772068C06910F0030FB0
:10175000204602D000F07FF904E000F07DF9204639
:1017600000F07BF90020207720680169C90617D5B1
:10177000C168C90614D56FF01001016108202077F7
:101780002068C06910F4407F204602D000F063F961
:1017900004E000F061F9204600F05FF900202077B6
:1017A00020680169C90708D5C168C90705D56FF068
:1017B000010101612046FFF745FB20680169090628
:1017C00008D5C168090605D56FF080010161204682
:1017D00000F044F920680169490608D5C168490646
:1017E00005D56FF040010161204600F038F920680E
:1017F000016989060AD5C168890607D56FF02001FD
:1018000001612046BDE8104000F02AB910BD10B4B7
:101810000368284A90420ED0B0F1804F0BD0264C7E
:10182000A04208D0254CA04205D0254CA04202D0B1
:10183000244CA04203D123F070034C682343904210
:1018400020D0B0F1804F1DD01B4CA0421AD01B4CB1
:10185000A04217D01A4CA04214D01A4CA04211D06A
:10186000194CA0420ED0194CA0420BD0184CA042EB
:1018700008D0184CA04205D0174CA04202D0174CFB
:10188000A04203D123F44073CC68234323F08003A8
:101890004C69234303608B68C3620B688362904288
:1018A00002D0084A904201D10969016301214161D6
:1018B00010BC7047000001400004004000080040D8
:1018C000000C004000040140004001400044014081
:1018D0000048014000180040001C0040002000406B
:1018E00070B400F13C021378012B01D1022015E005
:1018F000012313700223537003685C689D6825F010
:1019000080054E68354324F070040968214359600E
:1019100000688560012050700020107070BC704716
:1019200038B504460E4D4FF47A702978B0FBF1F0CB
:101930000C490968B1FBF0F0FEF754FF002801D014
:10194000012032BD102C08D2002221464FF0FF307A
:10195000FEF738FFAC60002032BD012032BD00BF71
:10196000000000200C0000201B4213D1094236D198
:101970002AB18446B0FBF2F002FB10C2704700F0BF
:1019800071B8FCD30022002370470B000200002135
:1019900000207047904271EB030CF6D370B5B1FA9A
:1019A00081F4B3FA83F52C1BA340C4F1200532FA6D
:1019B00005F63343A2405FF00046E64002E05B08D4
:1019C0005FEA3202841A71EB030524BF20462946E0
:1019D0007641F4D302000B003000002170BD012AD3
:1019E000CFD970B5140C20D0B1FA81F4B2FA82F5D7
:1019F000C4F120046419B4F12006D6D3B2405FF0DC
:101A00000044F440002502E052085FEA3303C61A9E
:101A100071EB020E24BF3046714664416D41F3D331
:101A200002000B002000290070BD0C46B1FBF2F152
:101A300002FB11452D0445EA1045B5FBF2F402FB0B
:101A4000145580B240EA0545B5FBF2F002FB105296
:101A500040EA044070BD7047704770477047704758
:101A600070470000704700000E48016841F47001A3
:101A700001600D48016841F00101016000218160B1
:101A800001680A4A1140016009494160016821F476
:101A9000802101600021C1604FF0006005490860AD
:101AA0007047000088ED00E000380240FFFFF6FEBE
:101AB0001030002408ED00E00000000000000000ED
:101AC000010203040607080919E050F8041BCB07BC
:101AD00044BFA9F101035918121F0023042A41F839
:101AE000043BF9D25FEA827C0B4604D54FF0000C30
:101AF000A1F800C09B1CD10744BF0021197050F809
:101B0000042B002AE1D1704710B450F8041B79B1BE
:101B10000268436802440830DC0744BFA9F10104AD
:101B2000E31852F8044B43F8044B091FF9D1ECE7D2
:101B300010BC704710B5074979441831064C7C44F5
:101B4000163404E00A68081D114488470146A14282
:101B5000F8D110BD2C0000004C0000004EF688515A
:101B6000CEF20001086840F470000860BFF34F8FA8
:101B7000BFF36F8F4FF00070E1EE100A7047000066
:101B800049FFFFFF000100001004002000000000DA
:101B900079FFFFFF1000000080000000000000201F
:101BA0000000000000F00BF8002801D0FFF7C2FF92
:101BB0000020AFF30080FEF754FF00F002F8012090
:101BC000704700F001B800000746384600F002F800
:101BD000FBE7000080B5AFF30080024A1100182037
:101BE000ABBEFBE7260002000148804701480047E2
:101BF000691A0008291C00080248416802788918FF
:101C00004160704700000020FFF7F6BF0148FFF772
:101C100055BD000054040020010000000000000039
:101C2000100000000024F400AFF30080FFF796FFDF
:101C3000FFF7B8FFFFF7FEBFFFF7FEBFFFF7FEBFDE
:101C4000FFF7FEBFFFF7FEBFFFF7FEBFFFF7FEBFC8
:101C5000FFF7FEBFFFF7FEBFFFF7FEBFFFF7FEBFB8
:101C6000FFF7FEBFFFF7FEBFFFF7FEBFFFF7FEBFA8
:101C7000FFF7FEBFFFF7FEBFFFF7FEBFFFF7FEBF98
:101C8000FFF7FEBFFFF7FEBFFFF7FEBFFFF7FEBF88
:101C9000FFF7FEBFFFF7FEBFFFF7FEBFFFF7FEBF78
:101CA000FFF7FEBFFFF7FEBFFFF7FEBFFFF7FEBF68
:101CB000FFF7FEBFFFF7FEBFFFF7FEBFFFF7FEBF58
:101CC000FFF7FEBFFFF7FEBFFFF7FEBFFFF7FEBF48
:101CD000FFF7FEBFFFF7FEBFFFF7FEBFFFF7FEBF38
:101CE000FFF7FEBFFFF7FEBFFFF7FEBFFFF7FEBF28
:101CF000FFF7FEBFFFF7FEBFFFF7FEBFFFF7FEBF18
:101D0000FFF7FEBFFFF7FEBFFFF7FEBFFFF7FEBF07
:101D1000FFF7FEBFFFF7FEBFFFF7FEBFFFF7FEBFF7
:101D2000FFF7FEBFFFF7FEBFFFF7FEBFFFF7FEBFE7
:101D3000FFF7FEBFFFF7FEBFFFF7FEBFFFF7FEBFD7
:101D4000FFF7FEBFFFF7FEBFFFF7FEBFFFF7FEBFC7
:101D5000FFF7FEBFFFF7FEBFFFF7FEBFFFF7FEBFB7
:101D6000FFF7FEBFFFF7FEBFFFF7FEBFFFF7FEBFA7
:101D7000FFF7FEBFFFF7FEBFFFF7FEBFFFF7FEBF97
:101D8000FFF7FEBFFFF7FEBFFFF7FEBFFFF7FEBF87
:041D9000FFF7FEBF9C
:0400000508001C29AA
:00000001FF
